{
  "_format": "hh-sol-artifact-1",
  "contractName": "MyToken",
  "sourceName": "contracts/MyToken.sol",
  "abi": [
    {
      "inputs": [],
      "stateMutability": "nonpayable",
      "type": "constructor"
    },
    {
      "anonymous": false,
      "inputs": [
        {
          "indexed": true,
          "internalType": "address",
          "name": "owner",
          "type": "address"
        },
        {
          "indexed": true,
          "internalType": "address",
          "name": "approved",
          "type": "address"
        },
        {
          "indexed": true,
          "internalType": "uint256",
          "name": "tokenId",
          "type": "uint256"
        }
      ],
      "name": "Approval",
      "type": "event"
    },
    {
      "anonymous": false,
      "inputs": [
        {
          "indexed": true,
          "internalType": "address",
          "name": "owner",
          "type": "address"
        },
        {
          "indexed": true,
          "internalType": "address",
          "name": "operator",
          "type": "address"
        },
        {
          "indexed": false,
          "internalType": "bool",
          "name": "approved",
          "type": "bool"
        }
      ],
      "name": "ApprovalForAll",
      "type": "event"
    },
    {
      "anonymous": false,
      "inputs": [
        {
          "indexed": true,
          "internalType": "address",
          "name": "previousOwner",
          "type": "address"
        },
        {
          "indexed": true,
          "internalType": "address",
          "name": "newOwner",
          "type": "address"
        }
      ],
      "name": "OwnershipTransferred",
      "type": "event"
    },
    {
      "anonymous": false,
      "inputs": [
        {
          "indexed": true,
          "internalType": "address",
          "name": "from",
          "type": "address"
        },
        {
          "indexed": true,
          "internalType": "address",
          "name": "to",
          "type": "address"
        },
        {
          "indexed": true,
          "internalType": "uint256",
          "name": "tokenId",
          "type": "uint256"
        }
      ],
      "name": "Transfer",
      "type": "event"
    },
    {
      "inputs": [
        {
          "internalType": "address",
          "name": "to",
          "type": "address"
        },
        {
          "internalType": "uint256",
          "name": "tokenId",
          "type": "uint256"
        }
      ],
      "name": "approve",
      "outputs": [],
      "stateMutability": "nonpayable",
      "type": "function"
    },
    {
      "inputs": [
        {
          "internalType": "address",
          "name": "owner",
          "type": "address"
        }
      ],
      "name": "balanceOf",
      "outputs": [
        {
          "internalType": "uint256",
          "name": "",
          "type": "uint256"
        }
      ],
      "stateMutability": "view",
      "type": "function"
    },
    {
      "inputs": [
        {
          "internalType": "uint256",
          "name": "tokenId",
          "type": "uint256"
        }
      ],
      "name": "burn",
      "outputs": [],
      "stateMutability": "nonpayable",
      "type": "function"
    },
    {
      "inputs": [
        {
          "internalType": "uint256",
          "name": "tokenId",
          "type": "uint256"
        }
      ],
      "name": "getApproved",
      "outputs": [
        {
          "internalType": "address",
          "name": "",
          "type": "address"
        }
      ],
      "stateMutability": "view",
      "type": "function"
    },
    {
      "inputs": [],
      "name": "getCurrentTokenId",
      "outputs": [
        {
          "internalType": "uint256",
          "name": "",
          "type": "uint256"
        }
      ],
      "stateMutability": "view",
      "type": "function"
    },
    {
      "inputs": [
        {
          "internalType": "address",
          "name": "owner",
          "type": "address"
        },
        {
          "internalType": "address",
          "name": "operator",
          "type": "address"
        }
      ],
      "name": "isApprovedForAll",
      "outputs": [
        {
          "internalType": "bool",
          "name": "",
          "type": "bool"
        }
      ],
      "stateMutability": "view",
      "type": "function"
    },
    {
      "inputs": [],
      "name": "name",
      "outputs": [
        {
          "internalType": "string",
          "name": "",
          "type": "string"
        }
      ],
      "stateMutability": "view",
      "type": "function"
    },
    {
      "inputs": [],
      "name": "owner",
      "outputs": [
        {
          "internalType": "address",
          "name": "",
          "type": "address"
        }
      ],
      "stateMutability": "view",
      "type": "function"
    },
    {
      "inputs": [
        {
          "internalType": "uint256",
          "name": "tokenId",
          "type": "uint256"
        }
      ],
      "name": "ownerOf",
      "outputs": [
        {
          "internalType": "address",
          "name": "",
          "type": "address"
        }
      ],
      "stateMutability": "view",
      "type": "function"
    },
    {
      "inputs": [],
      "name": "renounceOwnership",
      "outputs": [],
      "stateMutability": "nonpayable",
      "type": "function"
    },
    {
      "inputs": [
        {
          "internalType": "address",
          "name": "to",
          "type": "address"
        }
      ],
      "name": "safeMint",
      "outputs": [],
      "stateMutability": "payable",
      "type": "function"
    },
    {
      "inputs": [
        {
          "internalType": "address",
          "name": "from",
          "type": "address"
        },
        {
          "internalType": "address",
          "name": "to",
          "type": "address"
        },
        {
          "internalType": "uint256",
          "name": "tokenId",
          "type": "uint256"
        }
      ],
      "name": "safeTransferFrom",
      "outputs": [],
      "stateMutability": "nonpayable",
      "type": "function"
    },
    {
      "inputs": [
        {
          "internalType": "address",
          "name": "from",
          "type": "address"
        },
        {
          "internalType": "address",
          "name": "to",
          "type": "address"
        },
        {
          "internalType": "uint256",
          "name": "tokenId",
          "type": "uint256"
        },
        {
          "internalType": "bytes",
          "name": "data",
          "type": "bytes"
        }
      ],
      "name": "safeTransferFrom",
      "outputs": [],
      "stateMutability": "nonpayable",
      "type": "function"
    },
    {
      "inputs": [
        {
          "internalType": "address",
          "name": "operator",
          "type": "address"
        },
        {
          "internalType": "bool",
          "name": "approved",
          "type": "bool"
        }
      ],
      "name": "setApprovalForAll",
      "outputs": [],
      "stateMutability": "nonpayable",
      "type": "function"
    },
    {
      "inputs": [
        {
          "internalType": "bytes4",
          "name": "interfaceId",
          "type": "bytes4"
        }
      ],
      "name": "supportsInterface",
      "outputs": [
        {
          "internalType": "bool",
          "name": "",
          "type": "bool"
        }
      ],
      "stateMutability": "view",
      "type": "function"
    },
    {
      "inputs": [],
      "name": "symbol",
      "outputs": [
        {
          "internalType": "string",
          "name": "",
          "type": "string"
        }
      ],
      "stateMutability": "view",
      "type": "function"
    },
    {
      "inputs": [
        {
          "internalType": "uint256",
          "name": "tokenId",
          "type": "uint256"
        }
      ],
      "name": "tokenURI",
      "outputs": [
        {
          "internalType": "string",
          "name": "",
          "type": "string"
        }
      ],
      "stateMutability": "view",
      "type": "function"
    },
    {
      "inputs": [
        {
          "internalType": "address",
          "name": "from",
          "type": "address"
        },
        {
          "internalType": "address",
          "name": "to",
          "type": "address"
        },
        {
          "internalType": "uint256",
          "name": "tokenId",
          "type": "uint256"
        }
      ],
      "name": "transferFrom",
      "outputs": [],
      "stateMutability": "nonpayable",
      "type": "function"
    },
    {
      "inputs": [
        {
          "internalType": "address",
          "name": "newOwner",
          "type": "address"
        }
      ],
      "name": "transferOwnership",
      "outputs": [],
      "stateMutability": "nonpayable",
      "type": "function"
    }
  ],
  "bytecode": "0x60806040523480156200001157600080fd5b506040518060400160405280600781526020017f4d79546f6b656e000000000000000000000000000000000000000000000000008152506040518060400160405280600381526020017f4d544b0000000000000000000000000000000000000000000000000000000000815250816000908051906020019062000096929190620001a6565b508060019080519060200190620000af929190620001a6565b505050620000d2620000c6620000d860201b60201c565b620000e060201b60201c565b620002bb565b600033905090565b6000600660009054906101000a900473ffffffffffffffffffffffffffffffffffffffff16905081600660006101000a81548173ffffffffffffffffffffffffffffffffffffffff021916908373ffffffffffffffffffffffffffffffffffffffff1602179055508173ffffffffffffffffffffffffffffffffffffffff168173ffffffffffffffffffffffffffffffffffffffff167f8be0079c531659141344cd1fd0a4f28419497f9722a3daafe3b4186f6b6457e060405160405180910390a35050565b828054620001b49062000285565b90600052602060002090601f016020900481019282620001d8576000855562000224565b82601f10620001f357805160ff191683800117855562000224565b8280016001018555821562000224579182015b828111156200022357825182559160200191906001019062000206565b5b50905062000233919062000237565b5090565b5b808211156200025257600081600090555060010162000238565b5090565b7f4e487b7100000000000000000000000000000000000000000000000000000000600052602260045260246000fd5b600060028204905060018216806200029e57607f821691505b60208210811415620002b557620002b462000256565b5b50919050565b612b6280620002cb6000396000f3fe6080604052600436106101145760003560e01c80636352211e116100a0578063a22cb46511610064578063a22cb46514610390578063b88d4fde146103b9578063c87b56dd146103e2578063e985e9c51461041f578063f2fde38b1461045c57610114565b80636352211e146102a957806370a08231146102e6578063715018a6146103235780638da5cb5b1461033a57806395d89b411461036557610114565b806323b872dd116100e757806323b872dd146101e757806340d097c31461021057806342842e0e1461022c57806342966c6814610255578063561892361461027e57610114565b806301ffc9a71461011957806306fdde0314610156578063081812fc14610181578063095ea7b3146101be575b600080fd5b34801561012557600080fd5b50610140600480360381019061013b9190611bc3565b610485565b60405161014d9190611c0b565b60405180910390f35b34801561016257600080fd5b5061016b610567565b6040516101789190611cbf565b60405180910390f35b34801561018d57600080fd5b506101a860048036038101906101a39190611d17565b6105f9565b6040516101b59190611d85565b60405180910390f35b3480156101ca57600080fd5b506101e560048036038101906101e09190611dcc565b61063f565b005b3480156101f357600080fd5b5061020e60048036038101906102099190611e0c565b610757565b005b61022a60048036038101906102259190611e5f565b6107b7565b005b34801561023857600080fd5b50610253600480360381019061024e9190611e0c565b6107dd565b005b34801561026157600080fd5b5061027c60048036038101906102779190611d17565b6107fd565b005b34801561028a57600080fd5b50610293610859565b6040516102a09190611e9b565b60405180910390f35b3480156102b557600080fd5b506102d060048036038101906102cb9190611d17565b61086a565b6040516102dd9190611d85565b60405180910390f35b3480156102f257600080fd5b5061030d60048036038101906103089190611e5f565b61091c565b60405161031a9190611e9b565b60405180910390f35b34801561032f57600080fd5b506103386109d4565b005b34801561034657600080fd5b5061034f6109e8565b60405161035c9190611d85565b60405180910390f35b34801561037157600080fd5b5061037a610a12565b6040516103879190611cbf565b60405180910390f35b34801561039c57600080fd5b506103b760048036038101906103b29190611ee2565b610aa4565b005b3480156103c557600080fd5b506103e060048036038101906103db9190612057565b610aba565b005b3480156103ee57600080fd5b5061040960048036038101906104049190611d17565b610b1c565b6040516104169190611cbf565b60405180910390f35b34801561042b57600080fd5b50610446600480360381019061044191906120da565b610b84565b6040516104539190611c0b565b60405180910390f35b34801561046857600080fd5b50610483600480360381019061047e9190611e5f565b610c18565b005b60007f80ac58cd000000000000000000000000000000000000000000000000000000007bffffffffffffffffffffffffffffffffffffffffffffffffffffffff1916827bffffffffffffffffffffffffffffffffffffffffffffffffffffffff1916148061055057507f5b5e139f000000000000000000000000000000000000000000000000000000007bffffffffffffffffffffffffffffffffffffffffffffffffffffffff1916827bffffffffffffffffffffffffffffffffffffffffffffffffffffffff1916145b80610560575061055f82610c9c565b5b9050919050565b60606000805461057690612149565b80601f01602080910402602001604051908101604052809291908181526020018280546105a290612149565b80156105ef5780601f106105c4576101008083540402835291602001916105ef565b820191906000526020600020905b8154815290600101906020018083116105d257829003601f168201915b5050505050905090565b600061060482610d06565b6004600083815260200190815260200160002060009054906101000a900473ffffffffffffffffffffffffffffffffffffffff169050919050565b600061064a8261086a565b90508073ffffffffffffffffffffffffffffffffffffffff168373ffffffffffffffffffffffffffffffffffffffff1614156106bb576040517f08c379a00000000000000000000000000000000000000000000000000000000081526004016106b2906121ed565b60405180910390fd5b8073ffffffffffffffffffffffffffffffffffffffff166106da610d51565b73ffffffffffffffffffffffffffffffffffffffff161480610709575061070881610703610d51565b610b84565b5b610748576040517f08c379a000000000000000000000000000000000000000000000000000000000815260040161073f9061227f565b60405180910390fd5b6107528383610d59565b505050565b610768610762610d51565b82610e12565b6107a7576040517f08c379a000000000000000000000000000000000000000000000000000000000815260040161079e90612311565b60405180910390fd5b6107b2838383610ea7565b505050565b60006107c3600761110e565b90506107cf600761111c565b6107d98282611132565b5050565b6107f883838360405180602001604052806000815250610aba565b505050565b61080e610808610d51565b82610e12565b61084d576040517f08c379a000000000000000000000000000000000000000000000000000000000815260040161084490612311565b60405180910390fd5b61085681611150565b50565b6000610865600761110e565b905090565b6000806002600084815260200190815260200160002060009054906101000a900473ffffffffffffffffffffffffffffffffffffffff169050600073ffffffffffffffffffffffffffffffffffffffff168173ffffffffffffffffffffffffffffffffffffffff161415610913576040517f08c379a000000000000000000000000000000000000000000000000000000000815260040161090a9061237d565b60405180910390fd5b80915050919050565b60008073ffffffffffffffffffffffffffffffffffffffff168273ffffffffffffffffffffffffffffffffffffffff16141561098d576040517f08c379a00000000000000000000000000000000000000000000000000000000081526004016109849061240f565b60405180910390fd5b600360008373ffffffffffffffffffffffffffffffffffffffff1673ffffffffffffffffffffffffffffffffffffffff168152602001908152602001600020549050919050565b6109dc61126d565b6109e660006112eb565b565b6000600660009054906101000a900473ffffffffffffffffffffffffffffffffffffffff16905090565b606060018054610a2190612149565b80601f0160208091040260200160405190810160405280929190818152602001828054610a4d90612149565b8015610a9a5780601f10610a6f57610100808354040283529160200191610a9a565b820191906000526020600020905b815481529060010190602001808311610a7d57829003601f168201915b5050505050905090565b610ab6610aaf610d51565b83836113b1565b5050565b610acb610ac5610d51565b83610e12565b610b0a576040517f08c379a0000000000000000000000000000000000000000000000000000000008152600401610b0190612311565b60405180910390fd5b610b168484848461151e565b50505050565b6060610b2782610d06565b6000610b3161157a565b90506000815111610b515760405180602001604052806000815250610b7c565b80610b5b84611591565b604051602001610b6c92919061246b565b6040516020818303038152906040525b915050919050565b6000600560008473ffffffffffffffffffffffffffffffffffffffff1673ffffffffffffffffffffffffffffffffffffffff16815260200190815260200160002060008373ffffffffffffffffffffffffffffffffffffffff1673ffffffffffffffffffffffffffffffffffffffff16815260200190815260200160002060009054906101000a900460ff16905092915050565b610c2061126d565b600073ffffffffffffffffffffffffffffffffffffffff168173ffffffffffffffffffffffffffffffffffffffff161415610c90576040517f08c379a0000000000000000000000000000000000000000000000000000000008152600401610c8790612501565b60405180910390fd5b610c99816112eb565b50565b60007f01ffc9a7000000000000000000000000000000000000000000000000000000007bffffffffffffffffffffffffffffffffffffffffffffffffffffffff1916827bffffffffffffffffffffffffffffffffffffffffffffffffffffffff1916149050919050565b610d0f816116f2565b610d4e576040517f08c379a0000000000000000000000000000000000000000000000000000000008152600401610d459061237d565b60405180910390fd5b50565b600033905090565b816004600083815260200190815260200160002060006101000a81548173ffffffffffffffffffffffffffffffffffffffff021916908373ffffffffffffffffffffffffffffffffffffffff160217905550808273ffffffffffffffffffffffffffffffffffffffff16610dcc8361086a565b73ffffffffffffffffffffffffffffffffffffffff167f8c5be1e5ebec7d5bd14f71427d1e84f3dd0314c0f7b2291e5b200ac8c7c3b92560405160405180910390a45050565b600080610e1e8361086a565b90508073ffffffffffffffffffffffffffffffffffffffff168473ffffffffffffffffffffffffffffffffffffffff161480610e605750610e5f8185610b84565b5b80610e9e57508373ffffffffffffffffffffffffffffffffffffffff16610e86846105f9565b73ffffffffffffffffffffffffffffffffffffffff16145b91505092915050565b8273ffffffffffffffffffffffffffffffffffffffff16610ec78261086a565b73ffffffffffffffffffffffffffffffffffffffff1614610f1d576040517f08c379a0000000000000000000000000000000000000000000000000000000008152600401610f1490612593565b60405180910390fd5b600073ffffffffffffffffffffffffffffffffffffffff168273ffffffffffffffffffffffffffffffffffffffff161415610f8d576040517f08c379a0000000000000000000000000000000000000000000000000000000008152600401610f8490612625565b60405180910390fd5b610f9883838361175e565b610fa3600082610d59565b6001600360008573ffffffffffffffffffffffffffffffffffffffff1673ffffffffffffffffffffffffffffffffffffffff1681526020019081526020016000206000828254610ff39190612674565b925050819055506001600360008473ffffffffffffffffffffffffffffffffffffffff1673ffffffffffffffffffffffffffffffffffffffff168152602001908152602001600020600082825461104a91906126a8565b92505081905550816002600083815260200190815260200160002060006101000a81548173ffffffffffffffffffffffffffffffffffffffff021916908373ffffffffffffffffffffffffffffffffffffffff160217905550808273ffffffffffffffffffffffffffffffffffffffff168473ffffffffffffffffffffffffffffffffffffffff167fddf252ad1be2c89b69c2b068fc378daa952ba7f163c4a11628f55a4df523b3ef60405160405180910390a4611109838383611763565b505050565b600081600001549050919050565b6001816000016000828254019250508190555050565b61114c828260405180602001604052806000815250611768565b5050565b600061115b8261086a565b90506111698160008461175e565b611174600083610d59565b6001600360008373ffffffffffffffffffffffffffffffffffffffff1673ffffffffffffffffffffffffffffffffffffffff16815260200190815260200160002060008282546111c49190612674565b925050819055506002600083815260200190815260200160002060006101000a81549073ffffffffffffffffffffffffffffffffffffffff021916905581600073ffffffffffffffffffffffffffffffffffffffff168273ffffffffffffffffffffffffffffffffffffffff167fddf252ad1be2c89b69c2b068fc378daa952ba7f163c4a11628f55a4df523b3ef60405160405180910390a461126981600084611763565b5050565b611275610d51565b73ffffffffffffffffffffffffffffffffffffffff166112936109e8565b73ffffffffffffffffffffffffffffffffffffffff16146112e9576040517f08c379a00000000000000000000000000000000000000000000000000000000081526004016112e09061274a565b60405180910390fd5b565b6000600660009054906101000a900473ffffffffffffffffffffffffffffffffffffffff16905081600660006101000a81548173ffffffffffffffffffffffffffffffffffffffff021916908373ffffffffffffffffffffffffffffffffffffffff1602179055508173ffffffffffffffffffffffffffffffffffffffff168173ffffffffffffffffffffffffffffffffffffffff167f8be0079c531659141344cd1fd0a4f28419497f9722a3daafe3b4186f6b6457e060405160405180910390a35050565b8173ffffffffffffffffffffffffffffffffffffffff168373ffffffffffffffffffffffffffffffffffffffff161415611420576040517f08c379a0000000000000000000000000000000000000000000000000000000008152600401611417906127b6565b60405180910390fd5b80600560008573ffffffffffffffffffffffffffffffffffffffff1673ffffffffffffffffffffffffffffffffffffffff16815260200190815260200160002060008473ffffffffffffffffffffffffffffffffffffffff1673ffffffffffffffffffffffffffffffffffffffff16815260200190815260200160002060006101000a81548160ff0219169083151502179055508173ffffffffffffffffffffffffffffffffffffffff168373ffffffffffffffffffffffffffffffffffffffff167f17307eab39ab6107e8899845ad3d59bd9653f200f220920489ca2b5937696c31836040516115119190611c0b565b60405180910390a3505050565b611529848484610ea7565b611535848484846117c3565b611574576040517f08c379a000000000000000000000000000000000000000000000000000000000815260040161156b90612848565b60405180910390fd5b50505050565b606060405180602001604052806000815250905090565b606060008214156115d9576040518060400160405280600181526020017f300000000000000000000000000000000000000000000000000000000000000081525090506116ed565b600082905060005b6000821461160b5780806115f490612868565b915050600a8261160491906128e0565b91506115e1565b60008167ffffffffffffffff81111561162757611626611f2c565b5b6040519080825280601f01601f1916602001820160405280156116595781602001600182028036833780820191505090505b5090505b600085146116e6576001826116729190612674565b9150600a856116819190612911565b603061168d91906126a8565b60f81b8183815181106116a3576116a2612942565b5b60200101907effffffffffffffffffffffffffffffffffffffffffffffffffffffffffffff1916908160001a905350600a856116df91906128e0565b945061165d565b8093505050505b919050565b60008073ffffffffffffffffffffffffffffffffffffffff166002600084815260200190815260200160002060009054906101000a900473ffffffffffffffffffffffffffffffffffffffff1673ffffffffffffffffffffffffffffffffffffffff1614159050919050565b505050565b505050565b611772838361195a565b61177f60008484846117c3565b6117be576040517f08c379a00000000000000000000000000000000000000000000000000000000081526004016117b590612848565b60405180910390fd5b505050565b60006117e48473ffffffffffffffffffffffffffffffffffffffff16611b34565b1561194d578373ffffffffffffffffffffffffffffffffffffffff1663150b7a0261180d610d51565b8786866040518563ffffffff1660e01b815260040161182f94939291906129c6565b602060405180830381600087803b15801561184957600080fd5b505af192505050801561187a57506040513d601f19601f820116820180604052508101906118779190612a27565b60015b6118fd573d80600081146118aa576040519150601f19603f3d011682016040523d82523d6000602084013e6118af565b606091505b506000815114156118f5576040517f08c379a00000000000000000000000000000000000000000000000000000000081526004016118ec90612848565b60405180910390fd5b805181602001fd5b63150b7a0260e01b7bffffffffffffffffffffffffffffffffffffffffffffffffffffffff1916817bffffffffffffffffffffffffffffffffffffffffffffffffffffffff191614915050611952565b600190505b949350505050565b600073ffffffffffffffffffffffffffffffffffffffff168273ffffffffffffffffffffffffffffffffffffffff1614156119ca576040517f08c379a00000000000000000000000000000000000000000000000000000000081526004016119c190612aa0565b60405180910390fd5b6119d3816116f2565b15611a13576040517f08c379a0000000000000000000000000000000000000000000000000000000008152600401611a0a90612b0c565b60405180910390fd5b611a1f6000838361175e565b6001600360008473ffffffffffffffffffffffffffffffffffffffff1673ffffffffffffffffffffffffffffffffffffffff1681526020019081526020016000206000828254611a6f91906126a8565b92505081905550816002600083815260200190815260200160002060006101000a81548173ffffffffffffffffffffffffffffffffffffffff021916908373ffffffffffffffffffffffffffffffffffffffff160217905550808273ffffffffffffffffffffffffffffffffffffffff16600073ffffffffffffffffffffffffffffffffffffffff167fddf252ad1be2c89b69c2b068fc378daa952ba7f163c4a11628f55a4df523b3ef60405160405180910390a4611b3060008383611763565b5050565b6000808273ffffffffffffffffffffffffffffffffffffffff163b119050919050565b6000604051905090565b600080fd5b600080fd5b60007fffffffff0000000000000000000000000000000000000000000000000000000082169050919050565b611ba081611b6b565b8114611bab57600080fd5b50565b600081359050611bbd81611b97565b92915050565b600060208284031215611bd957611bd8611b61565b5b6000611be784828501611bae565b91505092915050565b60008115159050919050565b611c0581611bf0565b82525050565b6000602082019050611c206000830184611bfc565b92915050565b600081519050919050565b600082825260208201905092915050565b60005b83811015611c60578082015181840152602081019050611c45565b83811115611c6f576000848401525b50505050565b6000601f19601f8301169050919050565b6000611c9182611c26565b611c9b8185611c31565b9350611cab818560208601611c42565b611cb481611c75565b840191505092915050565b60006020820190508181036000830152611cd98184611c86565b905092915050565b6000819050919050565b611cf481611ce1565b8114611cff57600080fd5b50565b600081359050611d1181611ceb565b92915050565b600060208284031215611d2d57611d2c611b61565b5b6000611d3b84828501611d02565b91505092915050565b600073ffffffffffffffffffffffffffffffffffffffff82169050919050565b6000611d6f82611d44565b9050919050565b611d7f81611d64565b82525050565b6000602082019050611d9a6000830184611d76565b92915050565b611da981611d64565b8114611db457600080fd5b50565b600081359050611dc681611da0565b92915050565b60008060408385031215611de357611de2611b61565b5b6000611df185828601611db7565b9250506020611e0285828601611d02565b9150509250929050565b600080600060608486031215611e2557611e24611b61565b5b6000611e3386828701611db7565b9350506020611e4486828701611db7565b9250506040611e5586828701611d02565b9150509250925092565b600060208284031215611e7557611e74611b61565b5b6000611e8384828501611db7565b91505092915050565b611e9581611ce1565b82525050565b6000602082019050611eb06000830184611e8c565b92915050565b611ebf81611bf0565b8114611eca57600080fd5b50565b600081359050611edc81611eb6565b92915050565b60008060408385031215611ef957611ef8611b61565b5b6000611f0785828601611db7565b9250506020611f1885828601611ecd565b9150509250929050565b600080fd5b600080fd5b7f4e487b7100000000000000000000000000000000000000000000000000000000600052604160045260246000fd5b611f6482611c75565b810181811067ffffffffffffffff82111715611f8357611f82611f2c565b5b80604052505050565b6000611f96611b57565b9050611fa28282611f5b565b919050565b600067ffffffffffffffff821115611fc257611fc1611f2c565b5b611fcb82611c75565b9050602081019050919050565b82818337600083830152505050565b6000611ffa611ff584611fa7565b611f8c565b90508281526020810184848401111561201657612015611f27565b5b612021848285611fd8565b509392505050565b600082601f83011261203e5761203d611f22565b5b813561204e848260208601611fe7565b91505092915050565b6000806000806080858703121561207157612070611b61565b5b600061207f87828801611db7565b945050602061209087828801611db7565b93505060406120a187828801611d02565b925050606085013567ffffffffffffffff8111156120c2576120c1611b66565b5b6120ce87828801612029565b91505092959194509250565b600080604083850312156120f1576120f0611b61565b5b60006120ff85828601611db7565b925050602061211085828601611db7565b9150509250929050565b7f4e487b7100000000000000000000000000000000000000000000000000000000600052602260045260246000fd5b6000600282049050600182168061216157607f821691505b602082108114156121755761217461211a565b5b50919050565b7f4552433732313a20617070726f76616c20746f2063757272656e74206f776e6560008201527f7200000000000000000000000000000000000000000000000000000000000000602082015250565b60006121d7602183611c31565b91506121e28261217b565b604082019050919050565b60006020820190508181036000830152612206816121ca565b9050919050565b7f4552433732313a20617070726f76652063616c6c6572206973206e6f7420746f60008201527f6b656e206f776e6572206e6f7220617070726f76656420666f7220616c6c0000602082015250565b6000612269603e83611c31565b91506122748261220d565b604082019050919050565b600060208201905081810360008301526122988161225c565b9050919050565b7f4552433732313a2063616c6c6572206973206e6f7420746f6b656e206f776e6560008201527f72206e6f7220617070726f766564000000000000000000000000000000000000602082015250565b60006122fb602e83611c31565b91506123068261229f565b604082019050919050565b6000602082019050818103600083015261232a816122ee565b9050919050565b7f4552433732313a20696e76616c696420746f6b656e2049440000000000000000600082015250565b6000612367601883611c31565b915061237282612331565b602082019050919050565b600060208201905081810360008301526123968161235a565b9050919050565b7f4552433732313a2061646472657373207a65726f206973206e6f74206120766160008201527f6c6964206f776e65720000000000000000000000000000000000000000000000602082015250565b60006123f9602983611c31565b91506124048261239d565b604082019050919050565b60006020820190508181036000830152612428816123ec565b9050919050565b600081905092915050565b600061244582611c26565b61244f818561242f565b935061245f818560208601611c42565b80840191505092915050565b6000612477828561243a565b9150612483828461243a565b91508190509392505050565b7f4f776e61626c653a206e6577206f776e657220697320746865207a65726f206160008201527f6464726573730000000000000000000000000000000000000000000000000000602082015250565b60006124eb602683611c31565b91506124f68261248f565b604082019050919050565b6000602082019050818103600083015261251a816124de565b9050919050565b7f4552433732313a207472616e736665722066726f6d20696e636f72726563742060008201527f6f776e6572000000000000000000000000000000000000000000000000000000602082015250565b600061257d602583611c31565b915061258882612521565b604082019050919050565b600060208201905081810360008301526125ac81612570565b9050919050565b7f4552433732313a207472616e7366657220746f20746865207a65726f2061646460008201527f7265737300000000000000000000000000000000000000000000000000000000602082015250565b600061260f602483611c31565b915061261a826125b3565b604082019050919050565b6000602082019050818103600083015261263e81612602565b9050919050565b7f4e487b7100000000000000000000000000000000000000000000000000000000600052601160045260246000fd5b600061267f82611ce1565b915061268a83611ce1565b92508282101561269d5761269c612645565b5b828203905092915050565b60006126b382611ce1565b91506126be83611ce1565b9250827fffffffffffffffffffffffffffffffffffffffffffffffffffffffffffffffff038211156126f3576126f2612645565b5b828201905092915050565b7f4f776e61626c653a2063616c6c6572206973206e6f7420746865206f776e6572600082015250565b6000612734602083611c31565b915061273f826126fe565b602082019050919050565b6000602082019050818103600083015261276381612727565b9050919050565b7f4552433732313a20617070726f766520746f2063616c6c657200000000000000600082015250565b60006127a0601983611c31565b91506127ab8261276a565b602082019050919050565b600060208201905081810360008301526127cf81612793565b9050919050565b7f4552433732313a207472616e7366657220746f206e6f6e20455243373231526560008201527f63656976657220696d706c656d656e7465720000000000000000000000000000602082015250565b6000612832603283611c31565b915061283d826127d6565b604082019050919050565b6000602082019050818103600083015261286181612825565b9050919050565b600061287382611ce1565b91507fffffffffffffffffffffffffffffffffffffffffffffffffffffffffffffffff8214156128a6576128a5612645565b5b600182019050919050565b7f4e487b7100000000000000000000000000000000000000000000000000000000600052601260045260246000fd5b60006128eb82611ce1565b91506128f683611ce1565b925082612906576129056128b1565b5b828204905092915050565b600061291c82611ce1565b915061292783611ce1565b925082612937576129366128b1565b5b828206905092915050565b7f4e487b7100000000000000000000000000000000000000000000000000000000600052603260045260246000fd5b600081519050919050565b600082825260208201905092915050565b600061299882612971565b6129a2818561297c565b93506129b2818560208601611c42565b6129bb81611c75565b840191505092915050565b60006080820190506129db6000830187611d76565b6129e86020830186611d76565b6129f56040830185611e8c565b8181036060830152612a07818461298d565b905095945050505050565b600081519050612a2181611b97565b92915050565b600060208284031215612a3d57612a3c611b61565b5b6000612a4b84828501612a12565b91505092915050565b7f4552433732313a206d696e7420746f20746865207a65726f2061646472657373600082015250565b6000612a8a602083611c31565b9150612a9582612a54565b602082019050919050565b60006020820190508181036000830152612ab981612a7d565b9050919050565b7f4552433732313a20746f6b656e20616c7265616479206d696e74656400000000600082015250565b6000612af6601c83611c31565b9150612b0182612ac0565b602082019050919050565b60006020820190508181036000830152612b2581612ae9565b905091905056fea26469706673582212205e4f11fb571b2487f244b9c5d656669d1051f855b43c2ee5fba51909839a70e264736f6c63430008090033",
  "linkReferences": {},
  "deployedLinkReferences": {}
}